:020000040800F2
:1000000000800120410E0008990E0008990E00089A
:10001000990E0008990E0008990E000800000000D3
:10002000000000000000000000000000990E000821
:10003000990E000800000000990E000891040008C5
:10004000990E0008990E0008990E0008990E0008F4
:10005000990E0008990E0008990E0008990E0008E4
:10006000990E0008990E0008990E0008990E0008D4
:10007000990E0008990E0008990E0008990E0008C4
:10008000990E0008990E0008990E00080000000063
:10009000000000000000000000000000990E0008B1
:1000A000990E0008990E0008990E0008990E000894
:1000B000990E0008990E0008990E0008990E000884
:1000C000990E0008990E0008990E0008990E000874
:1000D000990E0008990E0008990E00080000000013
:1000E000990E0008990E0008990E00080000000003
:1000F000000000000000000000000000990E000851
:1001000000000000990E0008990E0008990E0008E2
:1001100000000000000000000000000000000000DF
:10012000990E0008990E0008990E0008990E000813
:10013000990E000800000000000000000000000010
:10014000000000000000000000000000990E000800
:10015000990E0008990E0008990E0008990E0008E3
:10016000990E0008990E0008000000000000000031
:10017000000000000000000000000000000000007F
:1001800000000000990E00080000000000000000C0
:04019000990E0008BC
:1001940010B5054C237833B9044B13B10448AFF3BD
:1001A40000800123237010BD040000200000000023
:1001B400E80E000808B5064B1BB106480649AFF324
:1001C40000800648036813B1054B03B1984708BD86
:1001D40000000000E80E00080800002004000020D1
:1001E4000000000008B5072000F0B8FC6FF00B0019
:1001F40000210A4600F0C4FC6FF00A0000210A4600
:1002040000F0BEFC6FF0090000210A4600F0B8FCC3
:100214006FF0040000210A4600F0B2FC6FF0030006
:1002240000210A4600F0ACFC6FF0010000210A46F0
:1002340000F0A6FC4FF0FF3000210A4600F0A0FCBD
:1002440008BD00BF0F4AD2F8883043F47003C2F8E7
:1002540088300D4B196841F0010119600020986045
:10026400196821F0847121F48031196007495960BB
:10027400196821F480211960D8604FF000639360FD
:10028400704700BF00ED00E0003802401030002449
:100294000022014B1A7070472C000020704700BFE9
:1002A4002DE9F00F82B000234FF0010CDFF8BCA160
:1002B4006C4DD0E01E460CFA03F90A6802EA090202
:1002C4004A4540F0C7804C68022C01D0122C14D14E
:1002D400DF08083750F8274003F007084FEA88087A
:1002E4004FF00F0B0BFA08FB24EA0B0B0C6904FA12
:1002F40008F444EA0B0440F8274007685C004FF018
:10030400030808FA04F86FEA080808EA070B4F68BC
:1003140007F00307A74047EA0B0707604F6807F198
:10032400FF3BBBF1010F03D9112F01D0122F12D1C2
:10033400876808EA070BCF68A74047EA0B0787607E
:10034400476827EA09094F68C7F3001707FA06F652
:1003540046EA09064660C66808EA06088E6806FA90
:1003640004F444EA0804C4604C6814F0805F71D05B
:1003740000240194DAF8444044F48044CAF8444028
:10038400DAF8444004F480440194019C9C08A61CBF
:10039400DFF8D48058F8267003F00306B6004FF057
:1003A4000F0808FA06F827EA0807DFF8C49048455A
:1003B4001CD0DFF8C080404516D009F500694845D7
:1003C4000FD008F50068404508D009F50069484594
:1003D40014BF4FF007084FF0040809E04FF003087A
:1003E40006E04FF0020803E0E04601E04FF00008A9
:1003F40008FA06F63E4302341B4F47F82460D5F84A
:100404000080D44304EA08064F6817F4803F18BFFD
:1004140042EA08062E60D5F8048004EA08064F680C
:1004240017F4003F18BF42EA08066E60D5F808804A
:1004340004EA08064F6817F4801F18BF42EA08064A
:10044400AE60EE6834404F6817F4001F18BF42EAEC
:100454000604EC6001330F2B7FF62CAF02B0BDE82D
:10046400F00F7047003C0140003801400038024062
:1004740000000240000402400AB18161704709048F
:1004840081617047436959404161704708B500F084
:1004940033F800F0CBFB08BD10B50446074B1868D1
:1004A400074BA3FB0020800900F09CFB4FF0FF30BA
:1004B4002146002200F064FB002010BD0000002053
:1004C400D34D621008B50B4B1A6842F400721A60DF
:1004D4001A6842F480621A601A6842F480721A60E0
:1004E400032000F03BFB0020FFF7D6FFFFF77AFE66
:1004F400002008BD003C0240024B1A6801321A6019
:10050400704700BF34000020014B1868704700BFDB
:100514003400002030B583B00190FFF7F5FF0546A5
:10052400019CB4F1FF3F18BF0134FFF7EDFF401BFE
:10053400A042FAD303B030BDF0B583B004460368DB
:1005440013F0010F5AD0A24B9B6803F00C03042B49
:100554000AD09F4B9B6803F00C03082B0DD19C4BD6
:100564005B6813F4800F08D0994B1B6813F4003FA9
:1005740044D06368002B41D1A1E16368B3F5803FA7
:1005840005D1934B1A6842F480321A6015E0B3F532
:10059400A02F09D18E4B1A6842F480221A601A687F
:1005A40042F480321A6008E0894B1A6822F48032DF
:1005B4001A601A6822F480221A6063687BB1FFF71C
:1005C400A3FF0646824D05E0FFF79EFF801B6428CB
:1005D40000F277812B6813F4003FF5D00EE0FFF7AB
:1005E40093FF06467A4D05E0FFF78EFF801B6428D3
:1005F40000F269812B6813F4003FF5D1236813F0EE
:10060400020F5CD0724B9B6813F00C0F0AD0704B36
:100614009B6803F00C03082B1CD16D4B5B6813F42F
:10062400800F17D16A4B1B6813F0020F03D0E368E5
:10063400012B40F04A81664B1A6822F0F8022369C4
:10064400F82191FAA1F1B1FA81F18B401343604A88
:10065400136034E0E36803B301225E4B1A60FFF7D2
:1006640053FF06465A4D05E0FFF74EFF801B022854
:1006740000F22D812B6813F0020FF5D0544B1A6849
:1006840022F0F8022369F82191FAA1F1B1FA81F17B
:100694008B4013434E4A136011E000224D4B1A6005
:1006A400FFF732FF06464A4D05E0FFF72DFF801B9A
:1006B400022800F20E812B6813F0020FF5D1236893
:1006C40013F0080F26D0636993B10122424B1A60DC
:1006D400FFF71AFF06463E4D05E0FFF715FF801BA6
:1006E400022800F2F8806B6F13F0020FF5D011E0CE
:1006F4000022394B1A60FFF707FF0646344D05E028
:10070400FFF702FF801B022800F2E7806B6F13F0F3
:10071400020FF5D1236813F0040F6AD0002301936C
:100724002B4B1A6C42F080521A641B6C03F08053FA
:100734000193019B294B1A6842F480721A60FFF7F7
:10074400E3FE0646254D05E0FFF7DEFE801B02288A
:1007540000F2C5802B6813F4807FF5D0A368012BC9
:1007640005D11B4B1A6F42F001021A6714E0052BE6
:1007740009D1174B1A6F42F004021A671A6F42F03C
:1007840001021A6708E0124B1A6F22F001021A677D
:100794001A6F22F004021A67A3688BB1FFF7B4FE44
:1007A40007460B4D41F2883605E0FFF7ADFEC01B4E
:1007B400B04200F296802B6F13F0020FF5D018E0D0
:1007C400FFF7A2FE0746024D41F288360DE000BF56
:1007D4000038024000004742800E4742007000404B
:1007E400FFF792FEC01BB0427DD82B6F13F0020FAF
:1007F400F6D1A369002B78D0414A926802F00C022A
:10080400082A74D0022B47D100223E4B1A60FFF70E
:100814007BFE06463A4D04E0FFF776FE801B022875
:1008240067D82B6813F0007FF6D1E269236A1A4374
:10083400636A47F6C07191FAA1F1B1FA81F18B4074
:100844001A43A36A5B08591E4FF4403393FAA3F387
:10085400B3FA83F301FA03F31A43E16A4FF07063C6
:1008640093FAA3F3B3FA83F301FA03F31A43244B81
:100874005A600122234B1A60FFF746FE0546204CBE
:1008840004E0FFF741FE401B022834D8236813F02C
:10089400007FF6D0002031E000221A4B1A60FFF7E7
:1008A40033FE0546164C04E0FFF72EFE401B0228DB
:1008B40023D8236813F0007FF6D100201EE0012026
:1008C4001CE003201AE0032018E0012016E00320B6
:1008D40014E0032012E0032010E003200EE00320C4
:1008E4000CE003200AE0032008E0002006E00120D9
:1008F40004E0032002E0032000E0032003B0F0BD85
:1009040000380240600047421A4B9B6803F00C0316
:10091400042B2DD0082B01D017487047154B58686D
:1009240000F03F005B6813F4800F14BF134B124BAD
:10093400B3FBF0F00F4B5A6847F6C0731A4093FAB2
:10094400A3F3B3FA83F322FA03F303FB00F0094B96
:100954005A6802F440324FF4403393FAA3F3B3FAE3
:1009640083F322FA03F301335B00B0FBF3F0704727
:1009740002487047003802400024F40000127A0054
:100984002DE9F04104460D466D4B1B6803F00F033F
:100994008B4208D2CAB26A4B1A701B6803F00F0369
:1009A4008B4240F0B180236813F0020F06D0654BF0
:1009B400996821F0F001A2680A439A60236813F051
:1009C400010F64D06368012B05D15E4A126812F4EA
:1009D400003F0FD19BE09A1E012A05D8594A12689C
:1009E40012F0007F06D195E0564A126812F0020F09
:1009F40000F09380534A916821F003010B43936004
:100A0400FFF782FD06466368012B0FD105E0FFF76F
:100A14007BFD801B404503D982E04A4F41F2883870
:100A2400BB6803F00C03042BF1D130E0022B0FD18F
:100A340005E0FFF769FD801B404503D973E0414F92
:100A440041F28838BB6803F00C03082BF1D11EE097
:100A5400032B15D105E0FFF757FD801B404503D953
:100A640064E0384F41F28838BB6803F00C030C2B68
:100A7400F1D10CE0FFF748FD801B404503D958E055
:100A8400304F41F28838BB6813F00C0FF2D12C4B75
:100A94001B6803F00F03AB4207D9EAB2284B1A7064
:100AA4001B6803F00F03AB4246D1236813F0040F15
:100AB40006D0244B996821F4E051E2680A439A6015
:100AC400236813F0080F07D01E4B9A6822F4604283
:100AD400216942EAC1029A60FFF716FF194B9A682E
:100AE40002F0F002F02393FAA3F3B3FA83F322FAA9
:100AF40003F3154AD35CD840144B18600020FFF769
:100B0400CBFC0020BDE8F0810120BDE8F08101208C
:100B1400BDE8F0810120BDE8F0810120BDE8F0814D
:100B24000320BDE8F0810320BDE8F0810320BDE887
:100B3400F0810320BDE8F0810120BDE8F08100BF11
:100B4400003C024000380240000F00080000002072
:100B5400014B1868704700BF0000002000F0070038
:100B6400064AD36823F4E0631B041B0C43EA002306
:100B740043F0BF6343F40033D360704700ED00E0FB
:100B840030B4164BDB68C3F30223C3F10705042D0D
:100B940028BF04251C1D062C8CBF033B0023012405
:100BA40004FA05F5013D2940994004FA03F3013B99
:100BB4001A400A43002806DA00F00F001201D2B2EC
:100BC400074B1A5407E01201D2B200F1604000F55D
:100BD400614080F8002330BC704700BF00ED00E0A6
:100BE40014ED00E00138B0F1807F0AD2064B586062
:100BF400F021064A82F823100020986007221A6028
:100C040070470120704700BF10E000E000ED00E0F5
:100C14000428044B1A680CBF42F0040222F00402B8
:100C24001A60704710E000E0704700BF08B5FFF796
:100C3400FBFF08BD08B5FFF72BFB08BD00B583B06B
:100C4400FFF72CFB034B0193019B984703B05DF81E
:100C540004FB00BF390C000800B583B0FFF7EEFFBA
:100C6400034B0193019B984703B05DF804FB00BF5D
:100C7400990C000808B5FFF7EFFF002008BD00BF7E
:100C840008B500F0D3F8C82400F064F82046FFF754
:100C940041FCF9E708B5FFF7F3FF00BF30B58BB0AF
:100CA40000240194274B1A6B42F004021A631A6B56
:100CB40002F004020192019A02941A6B42F080023B
:100CC4001A631A6B02F080020292029A03941A6B5E
:100CD40042F001021A631A6B02F001020392039AB2
:100CE40004941A6B42F002021A631B6B03F00203B2
:100CF4000493049B144D284620212246FFF7BCFB95
:100D04004FF400530593114B06930794104805A91B
:100D1400FFF7C6FA0C23059302230693079408945D
:100D240007230993284605A9FFF7BAFA2023059358
:100D34000123069307940894284605A9FFF7B0FAFF
:100D44000BB030BD0038024000000240000021100A
:100D54000008024008B502482021FFF793FB08BDB4
:100D640000000240FEE700BF00B595B000230193E8
:100D74002A4A116C41F080511164126C02F08052C5
:100D84000192019A0293264A116821F4404141F4E8
:100D940000411160126802F440420292029A022158
:100DA400089101220B9210220C920E910F93109233
:100DB4004FF4A8731193042312930723139308A8E1
:100DC400FFF7BAFB18B117486321FFF7CBFF0F23D6
:100DD400039302210491002305934FF48052069259
:100DE400079303A8FFF7CCFD18B10E487121FFF754
:100DF400B9FFFFF7ADFE0C4BA3FB00208009FFF702
:100E0400F1FE0420FFF704FF4FF0FF3000210A46F3
:100E1400FFF7B6FE15B05DF804FB00BF00380240D2
:100E240000700040100F0008D34D621008B5FFF7A2
:100E340049FBFFF799FFFFF731FF08BDDFF83CD00E
:100E4400002100F004B80E4B5B58435004310D48A8
:100E54000D4B42189A42FFF4F6AF0C4A00F003B867
:100E6400002342F8043B0A4B9A42FFF4F9AFFFF720
:100E7400E9F900F011F8FFF7FDFE7047008001204A
:100E8400240F0008000000200400002004000020BB
:100E940038000020FFF7FEBF70B50E4B0E4DED1A63
:100EA400AD1000241E46AC4204D056F824209047CE
:100EB4000134F8E700F016F8084D094BED1AAD10AF
:100EC40000241E46AC4204D056F824209047013436
:100ED400F8E770BD1C0F00081C0F0008200F000865
:100EE4001C0F0008F8B500BFF8BC08BC9E4670474C
:0C0EF400F8B500BFF8BC08BC9E46704773
:100F000000000000000000000102030406070809B9
:0C0F10005372632F6D61696E5F2E6300E9
:040F1C00B90100080F
:040F2000950100082F
:040F24000024F400B1
:0400000508000E41A0
:00000001FF
